:100000000C9429020C9470020C9470020C94F9095F
:100010000C9470020C9470020C9470020C94700298
:100020000C9470020C9470020C944F1B0C94231CC3
:100030000C9454160C9470020C9470020C94700280
:100040000C9470020C9470020C9470020C94700268
:100050000C9470020C94AB160C9470020C94700209
:100060000C9470020C9470020C9470020C94700248
:100070000C9470020C9470020C9470020C94700238
:100080000C9470020C9470020C9470020C94700228
:100090000C9470020C9470020C9470020C94700218
:1000A0000C9470020C9470020C94700245001E00B7
:1000B0001F0020002100220035002B0014001A0030
:1000C0000800150017002F00E000040016000700CC
:1000D00009000A00035829001D001B000600190032
:1000E0000500E1000000000000006544E3002A0074
:1000F00028642E002D002700260025002400230060
:100100003100130012000C0018001C0030003400F5
:1001100033000F000E000D000B00015829003800BD
:1001200037003600100011002C0000000000000015
:100130000755E3004C42287427021F022F003000AD
:100140001C0109000C0001000F00120052001500F4
:1001500017000B0001001300500051004F000A006F
:10016000010001001D011B000600190005000E72B0
:1001700000000000000001002C000100010001004F
:100180000100010001000100010001000100010067
:100190000100010001000100010001000100010057
:1001A0000100010001000100DA5C01000100010012
:1001B000010001000100000000000000010001003A
:1001C0000100010045003A003B003C003D003E00BC
:1001D00046004B001E001F002000210022003502B7
:1001E0004E001E021F0220022102220201530100C2
:1001F000010001000100AA00A90039000000000070
:1002000000000100010001000100B30044004300B0
:100210004200410040003F00310223022700260037
:1002200025002400230030022F0227022602250287
:10023000240203534A004D004F0052005100500069
:10024000AE00000000000000AC00AB0001000100A7
:100250000100010001000100010001000100010096
:100260000100010001000100010001000100010086
:100270000100010001000100010001000100010076
:100280000100010001000100000000000000010069
:1002900001000100010054005500610060005F0092
:1002A000B2000100560057005E005D005C002A00AD
:1002B0000100200258005B005A0059004C00010068
:1002C0006700580063003600620001000100000072
:1002D0000000000001000100010001000100010018
:1002E0000100010001000100010001000100010006
:1002F00001000100010001000100010001000100F6
:100300000100010001530100010001000100010092
:1003100001000100000000000000010001000100D8
:1003200001000100010001000100010001000100C5
:1003300001000100010001000100010001000100B5
:100340000100010001000100010003530100010050
:100350000100010001000100010000000000000098
:1003600001000100010001000E03500069006E0051
:100370006B007900340000001403740061006D000C
:1003800061006E00690073006800690000000403EA
:10039000090409023B00020100A0FA09040000015F
:1003A000030101000921110100012240000705811C
:1003B0000308000A090401000103000000092111DB
:1003C0000100012232000705820320000A120110F9
:1003D00001000000084E54347001000102000105C4
:1003E000010980A101850319012AB700150126B76B
:1003F00000950175108100C0050C0901A10185045B
:1004000019012AA002150126A0029501751081008C
:10041000C005010906A101050719E029E715002516
:10042000019508750181029501750881010507197B
:100430000029FF150026FF009506750881000508B4
:100440001901290595057501910295017503910121
:10045000C00011241FBECFEFDAE0DEBFCDBF04B66F
:1004600003FE27C080916E0290916F02A0917002EE
:10047000B09171028730904BA740B04BD1F41092ED
:100480006E0210926F02109270021092710214BEEE
:1004900084B7877F84BF0FB6F894A89580916000D9
:1004A000886180936000109260000FBEE0E0F8E386
:1004B000099511E0A0E0B1E0EEE8FCE302C0059090
:1004C0000D92AA38B107D9F722E0AAE8B1E001C03D
:1004D0001D92AE36B207E1F70E9489180C941D1EDA
:1004E0000C9400000C9431050C9432050C947C02A1
:1004F0000C941E0381E0089581E0089508950C9402
:100500007E021F93CF93DF9300D000D00F92CDB720
:10051000DEB749835A836B833091BA0189819A810E
:1005200031111DC06623B9F02223A9F00E94BE1329
:10053000182F682F89819A810E946A1369817A81B4
:10054000812F0F900F900F900F900F90DF91CF9110
:100550001F910C942F030E949613182FEFCF0E9427
:10056000BE1369817A81EDCFFC01262F4081518134
:100570006281738184810C948102CF93DF93EC01BB
:1005800060E00E94B402BE01DF91CF910C947F0223
:100590000E940415811102C00E94A8150C947202D9
:1005A0000C94740208950E94E60E0E94D2022FEF6E
:1005B00084E39CE0215080409040E1F700C00000BF
:1005C0000C9410170F931F93CF93DF93EC0161E00E
:1005D0000E94B4028C01BE010E947602882329F198
:1005E000BE01C8010E9459078823F9F0BE01C80165
:1005F0000E94AB078823C9F0BE01C8010E94CE0843
:10060000882399F08A81882339F001158CE5180731
:1006100051F00F3D1C4579F0CE01DF91CF911F9134
:100620000F910C947A020E94D30280E0DF91CF9167
:100630001F910F9108950E94A815F7CF089581E0AA
:1006400008950C941F03CF93C82F0E9478028C2F1B
:10065000CF910C94210390E080E008950895972FA6
:1006600070E027E0929F600D711D1124FB0196E45C
:10067000899FE00DF11D1124EE0FFF1FE455FF4F80
:10068000859194910895FC01EE0FFF1FE859FC4FEE
:10069000859194910895CF93DF930E942F030E9438
:1006A0005704EC01811520E5920708F041C081153F
:1006B00030E4930708F0B4C0803E910518F5803C03
:1006C000910508F09DC0883A910570F4853A91052E
:1006D00008F08EC081309105F9F00097E9F0049799
:1006E000D8F4D0E0C0E018C08F3B9105D0F7C85ACD
:1006F000D0E0CC0FDD1FCA5EDE4F0990D881C02D3F
:10070000D4640AC08115904258F4C11581E0D8071D
:1007100018F4C83ED10528F7CE01DF91CF91089596
:10072000C11590E3D90708F071C0CE019F706AC06F
:10073000811525E5920758F5811534E5930708F0F2
:100740009EC0811542E5940750F4C11581E5D80794
:1007500008F469C0DC2FCC27C16FD06ADDCF982F99
:10076000969596959E0123703327C115D34508F0C1
:1007700077C0C1E0D0E002C0CC0FDD1F2A95E2F7C0
:1007800020E2929FC0011124C82BD92B67C0C1154C
:1007900089E5D807A8F4C11598E5D90708F074C011
:1007A000C11526E5D20708F09CCF8C2F0E94EE04DD
:1007B000C82FD0E0DC2FCC27CC27DF71D062ACCFA4
:1007C000C1153AE5D30708F464C0CE0190568115EF
:1007D000904208F086CF8D2F8F710E94EE0490E03A
:1007E000982F882788279F719C012C2BE901E6CF41
:1007F000C55AD0E0CC5BDE4FC881D0E0D0648CCF4E
:10080000805C91090E944303EC0186CFCE019927B9
:10081000D3FF03C0EC01D86C7FCFEC01D06C7CCF50
:10082000DF70D06A79CFCE01E4E096958795EA959E
:10083000E1F783702C2F26952695237090E2299F4F
:1008400090011124382B8C2F8370C1E0D0E002C0BE
:10085000CC0FDD1F8A95E2F7C22BD32BDC685CCF6F
:10086000C1E0D0E002C0CC0FDD1F2A95E2F730E2F4
:10087000939FC0011124C82BD92BDA684DCFD82FF4
:10088000CC27C46FD06A48CFDC2FCC27C06FD06A8A
:1008900043CF8C2F8F700E94EE0434E0D695C7951D
:1008A0003A95E1F7CF709C2FEC01D06935CF8238B3
:1008B0009105B1F1B0F48133910509F475C048F4A4
:1008C0008932910509F469C08A32910509F473C02F
:1008D00008958533910509F459C08933910501F1D3
:1008E0000895833E9105A9F138F4803E9105F9F011
:1008F000823E910549F10895863E9105A9F1873E12
:100900009105C9F1843E910519F52091600221FFFE
:100910001FC080915F0284FD14C087EE90E00895AF
:1009200020915F022370A1F080EE90E00895209165
:100930005F0220FD47C03091600230FF09C024FFF4
:1009400044C090E080E004C020915F0222FDF7CF18
:10095000089520915F0222FD3BC03091600230FD7E
:10096000E3CF24FFF5CFEDCF20915F0223FFF0CF3F
:1009700024FDE7CFD2CF20915F0223FD2CC0309120
:10098000600231FFEECF84EE90E0089520915F0287
:1009900025FFDECF89E290E0089520915F0225FFD8
:1009A000D7CF85E390E0089520915F0226FFD0CF56
:1009B0008AE290E0089520915F0226FFC9CF81E38B
:1009C00090E0089589E390E0089583EE90E0089523
:1009D00082EE90E0089586EE90E0089590915F0297
:1009E00092FF06C0282F28712830F9F4877F846091
:1009F00093FF06C0282F28712831F1F4877E846187
:100A00002091600220FF06C0382F38713830D9F4A9
:100A1000877F816021FF06C0282F28712831D1F4FB
:100A2000877E816194FD877E0895282F247124306C
:100A3000F9F68B7F8860DCCF282F2471243101F7F1
:100A40008B7E8861DDCF382F3171313019F78E7F81
:100A50008860E0CF282F2171213121F78E7E8861B7
:100A6000E1CF08950895E82FF0E0E55BFD4F808128
:100A70000895089580EA8A95F1F7089500C00895D1
:100A80000C943A05F894E82FE295EF70F0E031A16C
:100A9000282F2F7081E090E001C0880F2A95EAF797
:100AA000982F9095932391A392A1892B82A3789458
:100AB00008950895CF93DF930E94DC068091000192
:100AC0008091000195E0811190E09093560285E0BD
:100AD000891B8093550284E90E94420586E60E94A4
:100AE000420587E90E94420586EC0E94420584E3A4
:100AF0000E944205C7E4D1E089910E94420581E04D
:100B0000CE34D807C9F7E1E4F2E0ABE4B2E01192E9
:100B10001D9282E0EB34F807D1F785E00E9487064A
:100B20000E94C802DF91CF910C94E606FF920F93CA
:100B30001F93CF93DF9300D000D00F92CDB7DEB7D5
:100B40000E94BE06F82E60915602882309F450C018
:100B50008E010F5F1F4F85E0F80111928A95E9F72A
:100B6000862F90E0B801855B9D4F0E94040981119A
:100B700022C080918C018F5F80938C018630B0F110
:100B8000E0915502F0E0E55BFD4FD801CE010696FD
:100B900011921D92A817B907D9F70E94D0028F2D84
:100BA0000F900F900F900F900F90DF91CF911F91AA
:100BB0000F91FF90089510928C01A0915502B0E022
:100BC000A55BBD4F9E012A5F3F4FF12C4D91F8016F
:100BD00091918F01491731F0AD0141505109FA014E
:100BE0009083F82E0217130789F7D7CFF12CD5CFB2
:100BF00070E0655B7D4F8091550290E0855B9D4F75
:100C00000E942B090E945905CACFCF92DF92EF9222
:100C1000FF920F931F93CF93DF930EE411E081E4D3
:100C2000E82E82E0F82EC0E0CC24C394D12CF80149
:100C300081918F01F894E82FE295EF70F0E021A107
:100C40008F70A60102C0440F551F8A95E2F7CA01B2
:100C5000922F982B91A392A18095892382A37894B7
:100C60000E943E05E7E4F1E030E020E0D0E0419171
:100C7000A42FA295AF70B0E090968C9190E04F7049
:100C800002C0959587954A95E2F780FD3CC08C2D72
:100C9000022E01C0880F0A94EAF7D82B2F5F3F4F2E
:100CA0002730310521F7F801319780810E944205F4
:100CB0000E944005F7018081D81739F1D08381E087
:100CC000C82BFFEFEF1AFF0A41E00335140709F0C4
:100CD000AECF6091560270E0655B7D4F2C2F45E0F2
:100CE00081E492E00E9488060E949605C11101C02D
:100CF000C82F8C2FDF91CF911F910F91FF90EF9014
:100D0000DF90CF90089580E0C8CF80E0D9CF0895DC
:100D1000FF920F931F93CF93DF93F82E092F162F77
:100D2000D72FC42F222349F081E080938F010E94A6
:100D3000841690938E0180938D0180918F0188237A
:100D4000A1F080918D0190918E010E949C160697D2
:100D500060F0EF2DF02FA12FBD2FCE0FDF2FD11D73
:100D6000EC17FD0741F410928F01DF91CF911F9195
:100D70000F91FF90089581918D93F2CF8091900112
:100D8000811111C08091D80080618093D8008AE1E0
:100D90008A95F1F700C09091D900892F817090FF5A
:100DA00082E08093900181E090919001913009F070
:100DB00080E008950C94BE060E94DA06809300013C
:100DC0000E94BE0681110C94F80808950E94BE0688
:100DD000811102C00C94FE0808950F931F93CF93C6
:100DE000DF93C42FD22FFC0182818823C9F0409366
:100DF00093010E948416909392018093910180E266
:100E00008C0F883008F050C0C77081E001C0880F97
:100E1000CA95EAF7DF91CF911F910F910C947C0C4A
:100E200010919301141335C080919101909192011A
:100E30000E949C16883C910560F5C0E2CD0F1D17FD
:100E4000B9F080E2810F883040F4177081E001C072
:100E5000880F1A95EAF70E94830CC83048F481E0A5
:100E60009D2F977001C0880F9A95EAF70E947C0C1D
:100E7000802F0E94740CC830B8F4D77081E001C094
:100E8000880FDA95EAF7DF91CF911F910F910C94BB
:100E9000830C80E28C0F883038F4C77081E001C089
:100EA000880FCA95EAF7EFCFDF91CF911F910F918D
:100EB00008950F939C01CB01243F4CE5340759F171
:100EC000A8F4293DFCE53F0701F12A3D4CE5340734
:100ED000D1F1283D3C4591F406E221EE41EE68ED6A
:100EE0007CE50E94ED0680E00F910895263FFCE529
:100EF0003F07E9F0B0F0273F3C45F9F0FC01828163
:100F0000882339F110929301EFCF07E225EE45EEE9
:100F100069ED7CE5E6CF06E221EE40EE64EF7CE58C
:100F2000E0CF07E225EE44EE65EF7CE5DACF06E29E
:100F300021EE42EE66EF7CE5D4CF07E225EE46EEE9
:100F400067EF7CE5CECF08E221E045EE6AED7CE577
:100F5000C8CF81E0C9CFCF93DF93EC01FB01828141
:100F6000882309F419C1C230FCE5DF07C0F1C6319E
:100F70009CE5D90730F09E012B5F3C4529303105B7
:100F800070F50E9417159093600280935F02C03144
:100F9000ECE5DE0709F4CFC008F05BC0C8308CE593
:100FA000D80709F4B6C088F5C430ECE5DE0709F4CB
:100FB000A8C0C0F4C2308CE5D80709F49CC0809169
:100FC0005F028260C330DC4509F498C080915F0203
:100FD000909160020E9425150E94E60E80E0DF914C
:100FE000CF91089580915F028061C630ECE5DE0705
:100FF00009F484C080915F028860C730DC4508F442
:101000007DC080915F02806279C0CC308CE5D807CA
:1010100009F489C070F480915F028C60CA30ECE5FD
:10102000DE0709F46BC008F478C080915F028E7F00
:1010300065C0CE308CE5D80709F479C080915F0295
:101040008B7FCF30DC4508F459C080915F028F7EE2
:1010500055C0CC3FECE5DE0709F457C030F5C3318D
:101060008CE5D80709F46FC078F4C131ECE5DE07F0
:1010700009F465C0C231DC4509F0A8CF0E94E60E34
:1010800080915F028F773AC0C5318CE5D80709F4AB
:1010900062C008F476C0809160028160CB3FDC457D
:1010A00009F094CF8093600291CFC115FDE5DF0771
:1010B00009F44DC088F4809160028D7FCE3F9CE59D
:1010C000D90781F3809160028E7FCF3FDC4550F3DA
:1010D000809160028360E6CFC230FDE5DF0709F44E
:1010E00059C008F444C080E0C330DD4509F06ECF3C
:1010F0000E94AA156BCF80915F02816080935F028E
:1011000065CF80915F028460F9CF80916002826038
:10111000C9CF80915F028064F1CF0E94E60E80917A
:101120005F028068EBCF80915F028D7FE7CF809177
:101130005F02877FE3CF80915F028F7DDFCF809159
:101140005F028F7BDBCF80915F02837FD7CF80915F
:1011500060028C7FA7CF80915F0282FB992790F974
:1011600021E0922790FB82F990FB83F9C7CF809111
:101170006002982F909591708E7F892B90FB81F95A
:1011800091CF0E94E60E90915F02892F97FB87F91D
:101190008058B4CF81E0ACCF81E021CFCF93DF93F3
:1011A000EB0186319C4511F50E9453149A819923D5
:1011B00099F08A7A91E009F490E09093940181117A
:1011C00009C089E20E942E140E949F1480E0DF91E2
:1011D000CF91089585E3F6CF80919401811104C0E9
:1011E00089E20E943514F0CF85E3FBCF81E0EFCF99
:1011F00061E070E081E091E00C94AA0961E070E0A8
:1012000081E091E00C94B109CF93DF93D62FC72FE3
:101210000E944B0A0097E9F4ED2FFC2FDC01A65643
:10122000BE4F2C912193019685309105B9F70E940C
:10123000F5166E5F7F4F8F4F9F4F609396017093AF
:101240009701809398019093990181E0DF91CF916C
:10125000089580E0FBCFCF93DF93D62FC72F609107
:1012600096017091970180919801909199010E9447
:10127000D816ED2FFC2F90E080E02191DC01A656DE
:10128000BE4F2C93019685309105B9F7DF91CF9130
:1012900008958EE14A9B02C08150E1F74A9BFECF40
:1012A00008955A9880E28A95F1F75A9A0895FC01B8
:1012B0003BE03A95F1F798E020E080E031E040E152
:1012C0004A95F1F7880F4A9B02C08160232742E0CC
:1012D0004A95F1F7000040E14A95F1F7915079F70E
:1012E00090E19A95F1F799B132E03A95F1F7000063
:1012F00040E14A95F1F792FB992790F992272081D6
:10130000920F90830895EF92FF920F931F93CF93C4
:10131000DF930F92CDB7DEB719828C017C01E60E08
:10132000F11C0E151F0561F481E09981911180E097
:101330000F90DF91CF911F910F91FF90EF90089543
:101340000E944909CE0101960E945709F801819334
:101350008F01E7CF9093A00180939F01529A5A9AF0
:1013600008959093A00180939F0152985A9AEA9A07
:10137000E9E6F0E080818F7C808308956150770BEF
:1013800091E001C0990F6A95EAF720E031E09111F0
:1013900008C0222391F05A9A80E28A95F1F75A9870
:1013A0000895492F482339F05A9A232740E24A9555
:1013B000F1F79695ECCF5A98F9CF5A98EDCFFF9266
:1013C0000F931F93CF93DF93EC018C01060F111D38
:1013D000C017D10731F4DF91CF911F910F91FF908A
:1013E0000895F9900E94510968E08F2D0E94BE096E
:1013F000EFCF1F920F920FB60F9211242F933F93AE
:101400004F935F936F937F938F939F93AF93BF930C
:10141000CF93DF93EF93FF935A98529AC0919F0115
:10142000D091A0016D81662321F08E819F810E9461
:10143000DF090E94510980E18A95F1F75A98529884
:101440005A9A80E18A95F1F76A81662309F18B81C6
:101450009C810E948309E881F981882311F088E04A
:1014600001C082E080830E944909FF91EF91DF91E2
:10147000CF91BF91AF919F918F917F916F915F912C
:101480004F913F912F910F900FBE0F901F90189585
:10149000E881F981E4CFCF93DF93C0919F01D09190
:1014A000A001F894529A5A9885E08A95F1F70000C5
:1014B00052985A9A80E28A95F1F74A9B0CC0529A48
:1014C0005A9AE881F98181E08083789481E090E004
:1014D000DF91CF9108956D81662381F08E819F8188
:1014E0000E94830981110AC0529A5A9AE881F981AF
:1014F00082E08083789482E090E0EACF0E944909FC
:1015000080E28A95F1F75A98529A80E18A95F1F72C
:101510006A81662321F08B819C810E94DF090E94F1
:101520005109E881F9811082789490E080E0D0CF71
:101530009093A6018093A5010895E091A501F091F3
:10154000A601309721F00190F081E02D099480E010
:101550000895E091A501F091A601309721F0028055
:10156000F381E02D099408952091A3013091A40105
:101570002817390771F09093A4018093A301E0919B
:10158000A501F091A601309721F00680F781E02DAA
:10159000099408952091A1013091A20128173907DB
:1015A00071F09093A2018093A101E091A501F091C7
:1015B000A601309721F00084F185E02D099408956B
:1015C0000E9490166093B6017093B7018093B801A2
:1015D0009093B9016093B2017093B3018093B40109
:1015E0009093B501089585B7806885BF85B78068F9
:1015F00085BF0895089508950C94FA0A08950C94EF
:10160000FE0A0E94F30A82E095E10E9421170E94DF
:10161000FB0A0C94FC0A0C94BE06089508950E94DF
:101620007B160E94CF160E945A050E9426170C9422
:10163000FF0AAF92BF92CF92DF92EF92FF920F9389
:101640001F93CF93DF93CDB7DEB72A970FB6F894E9
:10165000DEBF0FBECDBF0E940D0B0E940E0B0E947D
:10166000050681110E94E00A88EAA82E81E0B82EC2
:1016700010E000E0C02E802F0E943305E82EF50117
:10168000F1905F01F81609F44BC08091350281FD9D
:101690000E9439058F2D8E25D12CFF24F394982F8D
:1016A0009F21C9F10E940B0B882399F0DE82CF8223
:1016B000EF2081E009F480E088870E948416816031
:1016C000782F9A8789874E815F8168858A850E94F5
:1016D000B80BF801E855FE4F8081F826F0820E9491
:1016E0009D0A9091A701891791F10E949D0A80930C
:1016F000A7012A960FB6F894DEBF0FBECDBFDF91CB
:10170000CF911F910F91FF90EF90DF90CF90BF90FE
:10171000AF900C942303D394FF0CF7E0DF12BFCFFC
:101720000F5F1F4F0A30110509F0A4CF8FEF898397
:101730008A831B820E9484168160782F9D838C830C
:1017400049815A816B818D810E94B80BC8CF2A963E
:101750000FB6F894DEBF0FBECDBFDF91CF911F91C2
:101760000F91FF90EF90DF90CF90BF90AF900895D2
:10177000DF92EF92FF920F931F93CF93DF93CDB73A
:10178000DEB72B970FB6F894DEBF0FBECDBF7A87BA
:101790008B87F42E052F162FE72ED82E61110E946D
:1017A00073141E821D827E2DEC82DD824F2D502F00
:1017B000612F8D2D9E812B960FB6F894DEBF0FBE44
:1017C000CDBFDF91CF911F910F91FF90EF90DF90F0
:1017D0000C944A11FC01808191810C940014CF93E8
:1017E000C82F882309F43FC08CEF8C0F813AA0F4F6
:1017F0006C2F8091090190910A010E94C1158823E4
:1018000029F08C2F0E9435140E949F148C2F0E9467
:101810002E14CF910C949F1480E28C0F883048F4E2
:10182000C77081E001C0880FCA95EAF70E9456147C
:10183000F0CFEBE5EC0FE33040F4F0E0EA57FE4F79
:10184000808190E0CF910C94B40AC85AC73158F403
:10185000EC2FF0E0EE0FFF1FE85AFE4F80819181E0
:10186000CF910C94CA0ACF910895882329F19CEF57
:10187000980F913A20F40E9435140C949F1490E232
:10188000980F983050F4877091E001C0990F8A95B5
:10189000EAF7892F0E945C14F0CF9BE5980F9330F4
:1018A00020F490E080E00C94B40A885A873120F448
:1018B00090E080E00C94CA0A08951F93CF93DF93C1
:1018C000182FEB010E94EF0B209731F4812FDF914D
:1018D000CF911F910C94350C8FE99FE00197F1F7A0
:1018E00000C000002197F0CF70E060E0893311F470
:1018F00060E570E00C945D0C882321F00E94561482
:101900000C949F140895882321F00E945C140C9479
:101910009F140895BF92CF92DF92EF92FF920F93A0
:101920001F93CF93DF936C01D62FC72FFC01128139
:10193000058102950F700E944C14E82E8823A1F0B7
:10194000E12E112389F08C2F807F803429F080E2F2
:101950008D0FE12C883040F082E00E94EA140E9452
:101960004C1491E0E82EE926BC2EB2949FE0B922F7
:10197000EB2DF0E0E15EF14E0C94D51D0C2F0F70B5
:10198000C07F11F00295007F1123A9F0002359F0C8
:1019900080E28D0F883010F0D11109C0802F0E9495
:1019A00056140E949F148D2F0E94EF0B14C0802F9D
:1019B0000E946614F6CF8D2F0E94350C002359F03B
:1019C00080E28D0F883010F0D1112CC0802F0E9442
:1019D0005C140E949F142B2D2850330B24303105AA
:1019E00020F40E949D0A0E942303EE2009F493C173
:1019F0000E94481480FD8FC1F60112820E94421499
:101A00000E94CE12C6010E94AC0E0E944214DF91C9
:101A1000CF911F910F91FF90EF90DF90CF90BF90EB
:101A20000C94EF12802F0E946C14D3CFFC2FFF7008
:101A3000FF2EC07FC03219F0F29480EFF822DD2330
:101A400069F0D13049F1112391F1002351F1F601F0
:101A5000858180FFA8CF8F70858323C0112381F0FB
:101A6000011106C00E9486148F290E947C0CB3CFFE
:101A70000130C1F70E9486148F290E948C14ABCFCD
:101A8000011106C00E9495148F2D0E94830CA3CFD4
:101A9000013009F4A0CFF6CF112329F0063008F069
:101AA0009ACF8F2DE2CF053008F095CFEDCF0023F0
:101AB00059F3D93349F4FFEF27EE33E0F1502040DA
:101AC0003040E1F700C000008D2F0E94350C83CF1D
:101AD0008C2F86958695837069F0813009F07BCFD5
:101AE0008D2F9C2F9370111102C090E080E00E9416
:101AF000CA0A71CF8D2F9C2F9370111102C090E0F4
:101B000080E00E94B40A67CF8C2F837009F041C037
:101B1000111161CF4D2F429546954770440F440FE8
:101B20000D2F0F7010E030E020E0042E04C0000FF5
:101B3000111F221F331F0A94D2F760E070E0CB011F
:101B4000D4FF0FC06FE070E080E090E004C0660F4B
:101B5000771F881F991F4A95D2F7609570958095D9
:101B60009095C695C695C370602B712B822B932BD5
:101B7000C23049F058F4C13019F00E9480122BCFC6
:101B80000E946E1228CF0E94921225CF0E946C12E2
:101B900022CF8695112311F08C2F8170882309F4B0
:101BA0001ACF4D2F429546954770440F440F0D2F85
:101BB0000F7010E030E020E0042E04C0000F111F71
:101BC000221F331F0A94D2F760E070E0CB01D4FFEC
:101BD0000FC06FE070E080E090E004C0660F771FF8
:101BE000881F991F4A95D2F76095709580959095BA
:101BF000C695C695C370602B712B822B932BC23078
:101C000049F058F4C13019F00E944513E4CE0E9407
:101C10003313E1CE0E945713DECE0E94A812DBCE12
:101C2000CF70112329F08C2F0E94CE128D2F1DCF43
:101C30008D2F0E94830C8C2F0E94EF12CCCED23FAE
:101C400089F160F4D03FC9F0D13F29F1112309F4A3
:101C500042C00111A8CE8C2F8F7121C0D33F39F122
:101C6000D43FA1F7112369F1CF718C2F0E94CE12BE
:101C700063E08C2F0E94D514AECE112341F00530C5
:101C800008F0A9CE8C2F8F710E941213A4CE0630BB
:101C900008F0A1CEF7CF8C2F8F71112369F20E942B
:101CA000CE1299CE8C2F8F711123C9F3C5CF11237A
:101CB00029F08C2F8F710E94B9128DCE0E94B41220
:101CC0008ACE81E00E94EA14023008F484CE82E0D9
:101CD0000E94EA1480CE002359F0D93309F0F4CEE3
:101CE0008FEF97EEE3E081509040E040E1F7EACEDD
:101CF0008C2F8F71A1CF4C2F4F706D2FC6010E947A
:101D00002B030E94E41167CE4C2F4F706D2FC6013C
:101D10000E942E0360CEDF91CF911F910F91FF9013
:101D2000EF90DF90CF90BF9008950F931F93CF93C4
:101D3000DF93EC01688179818A810E940A148C0109
:101D40000E9469130E946B12B801CE01DF91CF91FE
:101D50001F910F910C948A0CCF93DF93EC018B8130
:101D60009C81892B29F08881998189238F3F59F49F
:101D7000DF91CF910895CE010E94950ECE01DF91A3
:101D8000CF910C94BD02CE010E94E2028111F3CFEB
:101D90000E944C14882361F38A81882349F382E0EE
:101DA000DF91CF910C94EA1490E080E00E94B40A95
:101DB00090E080E00E94CA0A0E9473140E9483147B
:101DC0000C949F140E943C140C94D40E0E94631433
:101DD0000C94E20EE92FE295EF70E250EE3070F4D1
:101DE000F0E0E15DF14E0C94D51D803F19F020F438
:101DF000883E20F481E00895843FE1F380E0089577
:101E0000883EC0F3813FD1F7F5CF93FB882780F957
:101E100008950E9400140C94EA0ECF93DF9300D033
:101E200000D00F92CDB7DEB70F900F900F900F90AC
:101E30000F90DF91CF910895CF93DF9300D000D022
:101E400000D0CDB7DEB726960FB6F894DEBF0FBE32
:101E5000CDBFDF91CF9108951F93CF93DF93C091B2
:101E6000BB0116E08091BC018C1304C0DF91CF91BF
:101E70001F910895D0E01C9FF0011D9FF00D1124CB
:101E8000E354FE4F40815181628173818481958149
:101E90000E941C0F2196C770E5CF4091ED01509133
:101EA000EE016091EF017091F0018091F10190914C
:101EB000F2010C941C0F1F93CF93DF938091F201DA
:101EC000807FA9F48091EF01882389F08091BB0184
:101ED000C091BC016091ED017091EE01A091F00103
:101EE000B091F101D62FD72316E0C81304C0DF91BB
:101EF000CF911F91089590E0109711F0DF3F19F4F2
:101F000001968770F2CF189F9001199F300D112410
:101F1000F901E354FE4F41814713F2CF408146134C
:101F2000EFCF42814111ECCF438154814A1B5B0BBF
:101F3000483C510528F78091F2018F7080618093B1
:101F4000F201F901EE53FE4F80818F708061808332
:101F50008DEE91E00E94AC0EDF91CF911F910C9419
:101F60002C0FAF92BF92CF92DF92EF92FF920F931E
:101F70001F93CF93DF93CDB7DEB761970FB6F89479
:101F8000DEBF0FBECDBF8C0185E0F801DE011D96DE
:101F900001900D928A95E1F7F80140815181E2802C
:101FA0008DEEC82E81E0D82E6091F0017091F10184
:101FB0006115710509F44FC19091ED012091EE0179
:101FC000892F82238F3F09F446C1A380B480F0900B
:101FD000EF01F501E61BF70BFF2009F40AC1809120
:101FE000F201382F307FE83CF10508F0C0C0311114
:101FF00079C0FE2C251323C0941321C0E1101FC00B
:102000008F7080618093F2010E944D0FC6010E9483
:10201000AC0E8091F201F80185838F2D61960FB689
:10202000F894DEBF0FBECDBFDF91CF911F910F910E
:10203000FF90EF90DF90CF90BF90AF900895AB28C6
:1020400029F0842F85238F3F09F021C180E0F82FEC
:10205000F170DF2E80FF3CC08091BB012091BC015C
:1020600036E0821315C04D875E878D859E850E9460
:102070000014292F22952F702230F0F0243018F50B
:102080009F70F1F0F8019581907FD1F4D12C1EC0A2
:1020900090E0389FF001399FF00D1124E354FE4F7A
:1020A0006181651306C06081641303C062816E1193
:1020B0000FC001968770D5CF9F7011F0882331F340
:1020C000805E883018F3C8010E94AC0EFD2CA5CFAD
:1020D000EE2009F4A2CF8091F20181608093F20199
:1020E000F12C9BCF251314C0941312C0E11010C023
:1020F000F8018583C8010E94AC0E86E0F801ADEEC0
:10210000B1E001900D928A95E1F70E944D0F85CFC5
:102110004D875E878D859E850E94090F882319F162
:10212000EE2009F18091F201803270F02091ED01F2
:102130003091EE0138872F831986BB86AA868C875B
:10214000CE0107960E94AC0E86E0F801ADEEB1E03C
:1021500001900D928A95E1F70E945B0F0E944D0F4E
:10216000FF24F3945ACFC8010E94AC0EF9CF31116D
:1021700013C07A2DB98AA88A6E2D89890E940D0F05
:102180008DEE91E00E94AC0E86E0F60111928A95E8
:10219000E9F70E944D0FA4CF25130FC094130DC073
:1021A000E1100BC0F8018583C8010E94AC0E86E0E7
:1021B000F60111928A95E9F730CF4D875E878D85BC
:1021C0009E850E94090F882371F2EE2061F28091B2
:1021D000F201803208F4B8CF2091ED013091EE0188
:1021E0003A8329831B82BD82AC828E83CE01019605
:1021F000A9CFE83CF10510F5FE2CEE2009F4B3CF91
:1022000025130BC0941309C086E0F801ADEEB1E0D0
:1022100001900D928A95E1F700CF4D875E878D85FD
:102220009E850E94090F81118FCF8091F2018160FC
:102230008093F201C8010E94AC0EEFCE7A2DB98ACC
:10224000A88A6E2D89890E940D0F86E0F6011192F1
:102250008A95E9F75ACFEE2009F485CF4D875E873E
:102260008D859E850E94090FF82E882309F47BCF67
:1022700086E0F801ADEEB1E001900D928A95E1F7AC
:102280008DEE91E00E94EA0B0E945B0F3ECF81E051
:102290008E25DDCE1F93CF93DF93CDB7DEB72C977E
:1022A0000FB6F894DEBF0FBECDBF4F835887698746
:1022B0007A878B879C87CE0107960E94B10F88236F
:1022C00069F08A859B85892B39F04F815885842F49
:1022D00085238F3F09F071C016E05FC086E0FE01E4
:1022E0003796DE01119601900D928A95E1F78A8565
:1022F0009B85892B89F38F81988589238F3F61F393
:102300002091BC0130E0C901019687709927409166
:10231000BB014817190671F40E94E60E1092BC0129
:102320001092BB0186E0EDEEF1E0DF011D928A958F
:10233000E9F7D2CF96E0929FD001939FB00D112480
:10234000A354BE4FFE01319601900D929A95E1F78C
:102350008093BC010E942C0FBFCF819FC00111242C
:1023600083549E4F0E94B10F8823E9F0E091BB0196
:102370001E9FF0011124E354FE4F40815181628180
:102380007381848195810E941C0F8091BB0190E034
:102390000196877099278093BB018091BB01909132
:1023A000BC018913DACF2C960FB6F894DEBF0FBEAE
:1023B000CDBFDF91CF911F91089569857A858B8577
:1023C0009C850E941C0F88CFEF92FF920F931F9362
:1023D000CF93DF938C01892B81F0F12CEE24E394D1
:1023E000E8012196F8018491843770F4843008F074
:1023F0005FC08130B1F08230A1F1DF91CF911F91A8
:102400000F91FF90EF900895853709F44CC008F4C0
:102410003DC09CE7980F903780F78F770E94350C6E
:1024200049C00E5F1F4FFE01849190E2980F9830D3
:1024300060F48770FE2D01C0FF0F8A95EAF78F2F99
:102440000E9476140E949F1402C00E94EF0B8F2DF1
:10245000815030F2EFE9FFE03197F1F700C0000062
:10246000F7CF0E5F1F4FFE01849190E2980F9830D6
:1024700050F48770FE2D01C0FF0F8A95EAF78F2F69
:102480000E947C14DFCF0E94350CE1CF0E5F1F4FFE
:10249000FE01C491C150D8F28FE99FE00197F1F796
:1024A00000C00000F7CF0E5F1F4FFE01F490CFCFAA
:1024B0000E94EF0B8E01CBCF08950C945C120E940A
:1024C0005D126093240270932502809326029093FC
:1024D00027020C94D40E08950C945F120F931F934F
:1024E00000912402109125022091260230912702AA
:1024F000602B712B822B932B1F910F910C945F12E9
:102500000F931F930091240210912502209126021F
:102510003091270260237123822393231F910F910F
:102520000C945F120F931F930091240210912502C7
:102530002091260230912702602771278227932756
:102540001F910F910C945F120C945C120C94A412C6
:102550000E94A612609320027093210280932202AF
:10256000909323020C94D40E60E070E0CB010C94A5
:10257000A8120F931F9341E050E060E070E08A01E1
:102580009B0104C0000F111F221F331F8A95D2F731
:10259000C901B8011F910F910C94A8120F931F93BA
:1025A00041E050E060E070E004C0440F551F661F3A
:1025B000771F8A95D2F78091200290912102A091F5
:1025C0002202B09123028A019B01082B192B2A2B8E
:1025D0003B2BC901B8011F910F910C94A8120F93C6
:1025E0001F9341E050E060E070E004C0440F551FCD
:1025F000661F771F8A95D2F7CB01BA016095709557
:102600008095909500912002109121022091220244
:102610003091230260237123822393231F910F9112
:102620000C94A8120F931F9341E050E060E070E01B
:1026300004C0440F551F661F771F8A95D2F78091FB
:10264000200290912102A0912202B09123028A01DE
:102650009B01082719272A273B27C901B8011F9189
:102660000F910C94A8120F931F93009120021091C8
:1026700021022091220230912302602B712B822BA8
:10268000932B1F910F910C94A8120F931F930091FD
:102690002002109121022091220230912302602316
:1026A0007123822393231F910F910C94A8120F93EF
:1026B0001F9300912002109121022091220230915B
:1026C000230260277127822793271F910F910C9473
:1026D000A812089527E0929F800D1124982F9770DB
:1026E00041E001C0440F9A95EAF786958695869554
:1026F00095E0899FF0011124ED50FE4F90E080E0BD
:1027000070E05191DF0111979B01082E02C03695B0
:1027100027950A94E2F72170219525272423252760
:102720002C9301968530910561F7089527E0929FDB
:10273000800D1124982F977086958695869525E0B3
:10274000829FF0011124ED50FE4F50E040E080E008
:10275000219130E0092E02C0369527950A94E2F7C0
:1027600021703327042E01C0220F0A94EAF7822B2E
:102770004F5F5F4F4530510559F70895BF92CF9293
:10278000DF92EF92FF920F931F93CF93DF938C0111
:10279000C0902002D0902102E0902202F09023020B
:1027A0008091240290912502A0912602B0912702E7
:1027B000C82AD92AEA2AFB2ACFE1D0E0BC2ED701C9
:1027C000C6010C2E04C0B695A795979587950A94D7
:1027D000D2F780FD0EC0219788F7B12C8B2DDF91A9
:1027E000CF911F910F91FF90EF90DF90CF90BF900E
:1027F0000895B8018C2F0E944B03019761F3EECF2F
:10280000CF93DF93EC010E94BE13BE01DF91CF9105
:102810000C944B031F93CF93DF93EB019091BA017C
:10282000992331F0CB01DF91CF911F910C940014CB
:10283000882379F0CB010E94BE13182F682FCE0198
:102840000E946A13BE01812FDF91CF911F910C94DA
:102850004B03CB010E949613182FF4CF682F809161
:10286000090190910A010C94F715682F80910901D4
:1028700090910A010C94F9158091090190910A0137
:102880000C94FB1580912802859585958595089572
:10289000809128028770089590912802977081E0B6
:1028A00009F480E0089580913402089590913402F3
:1028B000892B809334020895809590913402982357
:1028C0009093340208951092340208959091330247
:1028D000892B809333020895809590913302982339
:1028E000909333020895109233020895909132022A
:1028F000892B80933202089580959091320298231B
:102900009093320208951092320208958091290224
:10291000089508950C94891490912902981721F034
:10292000809329020C948A140895809129028823A7
:1029300029F01092290280E00C948A140895E09105
:102940000901F0910A01809134028083E09109012C
:10295000F0910A01808190913302892B8083E0916C
:102960000901F0910A01808190913202892B8083C4
:1029700090912902992381F0E0910901F0910A01D7
:102980008081892B80838091090190910A010E94A6
:10299000AF1581110E9495148091090190910A014F
:1029A0000C94A90A08950C94D21498E0899F900180
:1029B0001124622B609328020E94CE12809128027B
:1029C0008595859585950C94D3141092280280E006
:1029D0000C94D31490912802809589238093280227
:1029E000282F277071F4282F082E000C330B921714
:1029F000130639F08595859585950E94EF120C9404
:102A0000E514089580E0089590E080E00E94E31DC1
:102A100021E08B3E9E4F09F020E0822F089582E056
:102A200090E00C94DB1D83E090E00C94DB1DCF93D1
:102A300084E090E00E94DB1DC82F81E290E00E94BC
:102A4000DB1D982F8C2FCF910895CF93C92F682F1E
:102A500084E090E00E94E91D6C2F81E290E0CF912C
:102A60000C94E91DAB01BC018FE090E00C94FB1DC0
:102A7000AB01BC0183E190E00C94FB1D60E070E0D1
:102A8000CB010C94381560E070E0CB010E94321548
:102A90000C943E156BEE7EEF90E080E00E94071EE6
:102AA00060E082E090E00E94E91D60E083E090E059
:102AB0000E94E91D10922402109225021092260213
:102AC0001092270260E084E090E00E94E91D60E03F
:102AD00081E290E00E94E91D60E085E090E00E94C4
:102AE000E91D60E086E090E00E94E91D6FEF87E05D
:102AF00090E00E94E91D40E050E0BA0188E090E0DB
:102B00000E94FB1D60E08DE090E00E94E91D40E026
:102B100050E0BA0188E190E00E94FB1D60E087E18F
:102B200090E00E94E91D40E050E0BA018CE190E0A5
:102B30000E94FB1D60E080E290E00E94E91D40E001
:102B400050E0BA0188E190E00E94FB1D0C9443150F
:102B50000C944A15682F8EE090E00C94E91D9C01BE
:102B60002E5F3F4FAC01485F5F4F80E02417350771
:102B700009F40895F90191919F019923B9F38F5FA9
:102B8000F5CF662349F0FC0132960896219126176D
:102B900029F0E817F907D1F780E0089581E008955A
:102BA0009C01FC0132969FEF80E04191461751F065
:102BB0009F3F19F4411101C0982F8F5F8630A9F70C
:102BC0009F3F09F40895290F311D97FD3A95F901AA
:102BD00062830895FC01329608962191261303C062
:102BE000DF0111971C92E817F907B9F708950C94C3
:102BF000D0150C94EA15029626E0FC0111922A9554
:102C0000E9F70895089508950C94031680916502DC
:102C1000843049F10E94041680E00E942303109240
:102C2000360288E190E020E40FB6F894A8958093EE
:102C300060000FBE2093600083B7817F846083BFF4
:102C400083B7816083BF7894889583B78E7F83BF75
:102C50000FB6F894A8958091600088618093600019
:102C6000109260000FBE08950895CF930E9402163F
:102C70000E9405060E943416C0E08C2F0E94330586
:102C8000811105C0CF5FCA30C1F7CF91089581E0AF
:102C9000FCCF08950C9449160E94E60E0E949D0AEE
:102CA0000E9423030C944A161F921FB61F921124F0
:102CB0008F939F93AF93BF9380913602811113C07E
:102CC0008091570290915802A0915902B0915A02F6
:102CD0004196A11DB11D8093570290935802A09375
:102CE0005902B0935A02BF91AF919F918F911F905B
:102CF0001FBE1F90189582E084BD93E095BD9AEFAA
:102D000097BD80936E0008952FB7F8948091570275
:102D100090915802A0915902B0915A022FBF089584
:102D20002FB7F89460915702709158028091590220
:102D300090915A022FBF08959C014FB7F89480914B
:102D4000570290915802A0915902B0915A024FBF78
:102D5000821B930B089578941F921FB61F92112423
:102D60008F939F93AF93BF93809157029091580296
:102D7000A0915902B0915A020196A11DB11D8093F4
:102D8000570290935802A0935902B0935A02BF91F0
:102D9000AF919F918F911F901FBE1F901895109219
:102DA0005B0210925C0210925D0210925E02089526
:102DB000CF92DF92EF92FF926B017C010E94BE06E0
:102DC00081110EC00E949016C61AD70AE80AF90AA5
:102DD000C0925B02D0925C02E0925D02F0925E02D1
:102DE000FF90EF90DF90CF9008950F931F930E9474
:102DF000BE06882321F01F910F910C9490160E941B
:102E0000901600915B0210915C0220915D0230915E
:102E10005E02600F711F821F931F1F910F91089513
:102E200087E797E7909301088093000888E19AE08C
:102E30000FB6F894A895809360000FBE9093600041
:102E4000FFCF90938B0180938A0108950E9404150F
:102E5000811102C00E94A8150E940F1580933502AF
:102E60000E9417159093600280935F020E941315D1
:102E7000682F70E090E080E00E946C126091200268
:102E80007091210280912202909123020C94A6124B
:102E900080913F0208950895CF93DF9300D00F9261
:102EA000CDB7DEB790916502943019F589837B83A5
:102EB0006A8382E08093E9008FEF9091E80081506F
:102EC00095FD06C095ED9A95F1F700008111F5CFBB
:102ED0008091E80085FF0DC050E040E063E070E0C5
:102EE000CE0101960E9444198091E8008E7780936C
:102EF000E8000F900F900F90DF91CF910895BC01E3
:102F000084E00C944C17BC0183E00C944C17CF93D5
:102F1000DF93EC0181E08093E9008FEF9091E8006E
:102F2000815095FD06C095ED9A95F1F7000081114D
:102F3000F5CF8091E80085FF14C050E040E068E0E4
:102F400070E0CE010E9444198091E8008E77809352
:102F5000E80088E0FE01A7E3B2E001900D928A95B7
:102F6000E1F7DF91CF91089580916402811109C04A
:102F70000E94D41A0E94311B8091E20084608093E9
:102F8000E200089510926402089508950895089546
:102F900042E061EC81E00E94501A42E261EC82E082
:102FA0000C94501A80916702833009F45FC030F4AA
:102FB0008130C1F1823009F49BC008958A3009F450
:102FC00087C08B3009F46DC0893009F04EC0809104
:102FD0006602813209F049C080916A0290916B02C9
:102FE000029708F042C08091E800877F8093E80054
:102FF0008091E80082FF35C09091F3008091F2004B
:10300000029729F48091F1008B7F813021F4809127
:10301000F10080933F028091E8008B778093E80075
:103020000C94841A80916602813AF9F48091E80048
:10303000877F8093E80080916A0290916B02892BD0
:1030400061F468E087E392E070E00E949319809158
:10305000E8008B778093E800089560E090E080E0DE
:10306000F3CF809165028111C3CF089580916602EC
:10307000813AD9F780916A0290916B02892BA9F766
:103080008091E800877F8093E8008091E80080FFCE
:10309000FCCF809115018093F1008091E8008E773C
:1030A000BDCF80916602813201F780916A029091D2
:1030B0006B02892BD1F68091E800877F8093E8002E
:1030C0000E94841A80916802809315010C94E60E88
:1030D00080916602813249F68091E800877F809373
:1030E000E8000E94841A809169028093400208954A
:1030F00080916602813A09F0B8CF8091E800877F1D
:103100008093E8008091E80080FFFCCF809140022E
:10311000C2CF84B7877F84BF0FB6F894A8958091FB
:103120006000886180936000109260000FBE80E8AC
:1031300090E00FB6F89480936100909361000FBE09
:103140000E94010B0E94D41A0E94311B8091E20060
:1031500084608093E20078940E94BA1D0E940F0B55
:103160008BE091E00E94980A809165028530A9F079
:103170000E94190B0E940D0B0E940E0BF5CF0E94AE
:10318000061680916302882341F00E943516882339
:1031900021F00E942E190E94E60E80916502853072
:1031A00071F30E944C16E4CF0C94D618292F3327C4
:1031B0002330310519F168F42130310509F444C098
:1031C0002230310509F445C090E080E030E020E095
:1031D00025C02132310549F122323105A9F780E4B9
:1031E00090E021E134E061157105C1F082E390E0E7
:1031F0002FED33E06130710589F0E6CF99278130FA
:10320000910581F0009729F00297F1F6E8E6F3E0E6
:1032100002C0EEE8F3E0849190E09F01FA0131836F
:1032200020830895E8E7F3E0F6CF89E090E024EA10
:1032300033E06115710591F389E090E02DEB33E007
:103240006130710559F3C0CF82E190E02DEC33E09D
:10325000E5CF8BE390E022E933E0E0CF80E189BD68
:1032600082E189BD09B400FEFDCF8091D8008F7D39
:103270008093D8008091E00082608093E00080918C
:10328000E00081FDFCCF0895AF92BF92CF92DF9214
:10329000FF920F931F93CF93DF936C01EB018A0191
:1032A0000E94A31AF82E811123C00115110539F0CF
:1032B000F80180819181C81BD90BC80ED91EB12C91
:1032C000A12C2097A9F08091E80085FD22C0809173
:1032D000E8008E778093E80001151105A1F0F80150
:1032E00080819181A80EB91EB182A08285E0F82E5E
:1032F0008F2DDF91CF911F910F91FF90DF90CF9095
:10330000BF90AF9008950E94A31A8823D1F2F82E9F
:10331000EFCFF60181916F018093F1002197FFEFCC
:10332000AF1ABF0ACECFFC0180916C0290916D0262
:1033300086179707A0F06115710529F49091E800B0
:103340009E779093E80090E06115710551F491111A
:1033500008C08091E80082FF34C080E00895BC017D
:10336000F2CF809165028823C1F18530C1F180914F
:10337000E80083FD30C08091E80082FDEACF8091B3
:10338000E80080FFE1CF8091F3002091F200382F18
:103390006115710519F02830310558F091E0283099
:1033A000310509F090E02091E8002E772093E800A5
:1033B000CBCF81918093F100615071092F5F3F4F16
:1033C000E7CF80916502882341F0853041F08091FC
:1033D000E80083FFBECF81E0089582E0089583E096
:1033E0000895FC0180916C0290916D0286179707F9
:1033F000A0F06115710529F48091E8008E77809323
:10340000E80090E06115710551F4911108C08091B8
:10341000E80082FF35C080E00895BC01F2CF8091C2
:1034200065028823C9F18530C9F18091E80083FDE8
:1034300031C08091E80082FDEACF8091E80080FFF2
:10344000E1CF8091F3002091F200382F61157105D2
:1034500019F02830310558F091E02830310509F095
:1034600090E08091E8008E778093E800CBCF849144
:103470008093F1003196615071092F5F3F4FE6CF85
:1034800080916502882341F0853041F08091E80009
:1034900083FFBDCF81E0089582E0089583E0089521
:1034A000982F973028F08F708093E90081E008957D
:1034B0009093E900242F762F50E0981731F0709107
:1034C000EC002091ED005091F00021FD02C09F5FC3
:1034D000E8CF3091EB003E7F3093EB003091ED0070
:1034E0003D7F3093ED003091EB0031603093EB0085
:1034F0007093EC002093ED005093F0002091EE00CB
:1035000027FDE5CF80E008958091660287FF13C014
:103510008091E80082FF06C08091E8008B7780935D
:10352000E80004C0809165028111F2CF0895809176
:1035300065028823D9F38091E80080FFF8CF80915D
:10354000E8008E77ECCF2091E4003091E50095E61D
:10355000A9012091EC00822F817020FF06C080918C
:10356000E80080FF06C080E008952091E80022FD79
:103570001AC080916502882389F0853089F0809196
:10358000EB0085FD0FC02091E4003091E50042176B
:103590005307F9F29150E1F684E0089582E008952E
:1035A00083E0089581E008950E94421B0E944A1B17
:1035B000E0EEF0E0808181608083E8EDF0E08081E2
:1035C0008F77808319BCA7EDB0E08C918E7F8C93B0
:1035D00080818F7E80831092640208950F931F93E1
:1035E000CF93DF930E94421B0E944A1BC8EDD0E09C
:1035F00088818F77888388818068888388818F7DA0
:10360000888319BC109265021092610210926302C5
:103610001092620200EE10E0F80180818B7F8083BF
:1036200088818160888342E060E080E00E94501AD7
:10363000E1EEF0E080818E7F8083E2EEF0E0808139
:1036400081608083808188608083F80180818E7FA3
:103650008083888180618883DF91CF911F910F9152
:103660000895E8EDF0E080818F7E8083E7EDF0E063
:1036700080818160808384E082BF81E080936402E6
:103680000C94EE1AE8EDF0E080818E7F808310923A
:10369000E20008951092DA001092E10008951F925E
:1036A0000F920FB60F9211242F933F934F935F9376
:1036B0006F937F938F939F93AF93BF93EF93FF93FA
:1036C0008091E10082FF0BC08091E20082FF07C081
:1036D0008091E1008B7F8093E1000E94B91D809171
:1036E000DA0080FF19C08091D80080FF15C080915A
:1036F000DA008E7F8093DA008091D90080FF96C037
:1037000080E189BD82E189BD09B400FEFDCF81E081
:10371000809365020E94B4178091E10080FF19C078
:103720008091E20080FF15C08091E2008E7F80933F
:10373000E2008091E20080618093E2008091D800F5
:1037400080628093D80019BC85E0809365020E9456
:10375000C6178091E10084FF2BC08091E20084FFB6
:1037600027C080E189BD82E189BD89B5982F91701C
:1037700080FFFBCF8091D8008F7D8093D80080910F
:10378000E1008F7E8093E1008091E2008F7E809344
:10379000E2008091E20081608093E200809161020A
:1037A000882309F449C084E0809365020E94C7170A
:1037B0008091E10083FF29C08091E20083FF25C052
:1037C0008091E100877F8093E10082E08093650231
:1037D000109261028091E1008E7F8093E1008091E0
:1037E000E2008E7F8093E2008091E200806180930E
:1037F000E20042E060E080E00E94501A8091F00018
:1038000088608093F0000E94C517FF91EF91BF91EF
:10381000AF919F918F917F916F915F914F913F9168
:103820002F910F900FBE0F901F90189519BC1092FA
:1038300065020E94C21770CF8091E30087FD93E07C
:1038400090936502B3CF1F920F920FB60F9211247F
:103850002F933F934F935F936F937F938F939F9398
:10386000AF93BF93CF93DF93EF93FF93D091E90092
:10387000DF708091EC00C82FC17080FDC0E810920D
:10388000E9008091F000877F8093F00078940E9497
:10389000671C1092E9008091F00088608093F0002E
:1038A000CD2BCF70C093E900FF91EF91DF91CF91C5
:1038B000BF91AF919F918F917F916F915F914F9148
:1038C0003F912F910F900FBE0F901F9018951F934F
:1038D000CF93DF93CDB7DEB7AA970FB6F894DEBFCC
:1038E0000FBECDBF86E692E02091F100FC0121934E
:1038F000CF01F2E08E369F07B9F70E94D217809170
:10390000E80083FF1EC180916602909167029A30A1
:1039100008F017C1E92FF0E0E35CF14E0C94D51DDF
:10392000803899F0823809F00CC180916A028F705A
:10393000873008F006C18093E9008091EB0085FB99
:10394000882780F91092E90006C080916202909168
:103950006302911182609091E800977F9093E80054
:103960008093F1001092F1008091E8008E77E5C01D
:10397000882309F4D3C0823009F0E3C08091680243
:103980008111D6C080916A028F702FEF280F2630E8
:1039900008F0D7C08093E9002091EB0020FFC8C059
:1039A000933031F48091EB0080628093EB00C0C0D3
:1039B0009091EB0090619093EB0021E030E001C02A
:1039C000220F8A95EAF72093EA001092EA0080918C
:1039D000EB008860EACF8111B4C0109168021F77B4
:1039E0008091E3008078812B8093E3008091E80050
:1039F000877F8093E8000E94841A8091E80080FF0E
:103A0000FCCF8091E30080688093E30082E0111195
:103A100083E08093650295C08058823008F091C0A1
:103A200080916802909169028C3D23E09207A1F594
:103A300083E08A838AE289834FB7F894DE01139684
:103A400020E03EE051E2E32FF0E050935700E49194
:103A500020FF03C0E295EF703F5FEF708E2F90E084
:103A6000EA30C0F0C7968D939D932F5F243159F7AC
:103A70004FBF8091E800877F8093E8006AE270E0A2
:103A8000CE0101960E9493198091E8008B77809374
:103A9000E80057C0C096E7CF60916A0270916B0250
:103AA000AE014F5F5F4F0E94D418BC01892B09F40F
:103AB00048C09091E800977F9093E80089819A81AF
:103AC0000E94F119E1CF8038E1F58091E800877F0D
:103AD0008093E800809161028093F10045CF8111CD
:103AE00030C090916802923060F58091E800877F45
:103AF0008093E800909361020E94841A8091610291
:103B0000882311F084E005C08091E30087FDFACF9F
:103B100081E0809365020E94C81713C080916802FB
:103B2000813079F481E0933009F080E08093630282
:103B30001092E9008091E800877F8093E8000E945E
:103B4000841A8091E80083FF0AC08091E800877F93
:103B50008093E8008091EB0080628093EB00AA964E
:103B60000FB6F894DEBF0FBECDBFDF91CF911F918E
:103B700008950895CF93809165028823A1F0C091A4
:103B8000E900CF709091EC00892F817090FD80E862
:103B9000C82B1092E9008091E80083FD0E94671C09
:103BA000CF70C093E900CF910895EE0FFF1F0590ED
:103BB000F491E02D0994F999FECF92BD81BDF89A58
:103BC000992780B50895A8E1B0E042E050E00C9458
:103BD0000F1E262FF999FECF92BD81BDF89A01974D
:103BE00000B4021639F01FBA20BD0FB6F894FA9A45
:103BF000F99A0FBE08950396272F0E94EA1D0E948E
:103C0000E91D252F0E94EA1D242F0C94EA1D019620
:103C1000272F0E94EA1D0C94E91DDC01CB01FC0159
:103C2000F999FECF06C0F2BDE1BDF89A319600B415
:103C30000D9241505040B8F70895F894FFCFBE0C54
:103C4000BE0C160D160D680DEB0CEB0CEB0C840D79
:103C5000100E1F0E1F0E7B0EEB0CEB0C840EF50EE0
:103C6000F50EFE0EFE0E000FFE0EFE0EFE0EF50E03
:103C7000F50E050FFE0EFE0E050F901CB81CA11DC3
:0E3C8000B81CA11DEB1C0C1DA11D631D6F1DAA
:103C8E00019501049601059A012A02481787174BE0
:103C9E001783177F1701E200E900EA00B500B600AE
:103CAE00B700CD008301CC008A019201940121025C
:103CBE00230224022502260227022A02B300B400A0
:103CCE006F007000818283F4F5F6F731333294661B
:103CDE0097C6340000000000E200E900EA00B500DB
:103CEE00B600B700CD008301CC008A019201940189
:103CFE002102230224022502260227022A02B300F1
:0A3D0E00B4006F0070008182830092
:00000001FF
